:020000040800F2
:1000000000500020A11B0008F11B0008F11B000894
:1000100000000000000000000000000000000000E0
:10002000000000000000000000000000211B00088C
:100030000000000000000000231B0008251B000832
:10004000F11B0008F11B0008F11B0008F11B000860
:10005000F11B0008F11B0008F11B0008311B000810
:10006000F11B0008F11B0008F11B0008F11B000840
:10007000F11B0008F11B0008F11B0008F11B000830
:10008000F11B0008F11B0008F11B00080000000034
:10009000F11B0008F11B0008F11B0008F11B000810
:1000A000F11B0008F11B0008F11B0008F11B000800
:1000B000F11B0008F11B0008F11B0008F11B0008F0
:1000C00010B5064C2378002B07D1054B002B02D02E
:1000D000044800E000BF0123237010BD040000208D
:1000E000000000003C1C0008044B10B5002B03D09E
:1000F0000349044800E000BF10BDC04600000000F6
:10010000080000203C1C000802B471464908490060
:10011000095C49008E4402BC7047C0460022430877
:100120008B4274D303098B425FD3030A8B4244D3BF
:10013000030B8B4228D3030C8B420DD3FF22090201
:1001400012BA030C8B4202D31212090265D0030BC0
:100150008B4219D300E0090AC30B8B4201D3CB03B6
:10016000C01A5241830B8B4201D38B03C01A5241F8
:10017000430B8B4201D34B03C01A5241030B8B42FA
:1001800001D30B03C01A5241C30A8B4201D3CB02E5
:10019000C01A5241830A8B4201D38B02C01A5241CA
:1001A000430A8B4201D34B02C01A5241030A8B42CD
:1001B00001D30B02C01A5241CDD2C3098B4201D3E5
:1001C000CB01C01A524183098B4201D38B01C01A63
:1001D000524143098B4201D34B01C01A52410309DA
:1001E0008B4201D30B01C01A5241C3088B4201D389
:1001F000CB00C01A524183088B4201D38B00C01A36
:10020000524143088B4201D34B00C01A5241411A5C
:1002100000D20146524110467047FFE701B5002069
:1002200000F006F802BDC0460029F7D076E7704717
:100230007047C046002B11D1002A0FD1002900D1F0
:10024000002802D00021C943081C07B4024802A1BB
:100250004018029003BDC046D9FFFFFF03B46846B3
:1002600001B5029800F006F8019B9E4602B00CBC56
:100270007047C046F0B557464E464546DE46E0B5A7
:10028000040083B00D00924699468B422FD82CD0A3
:100290004946504600F0AEF829000600200000F064
:1002A000A9F8331A9846203B9B4600D574E0534684
:1002B0005A4693401F005346424693401E00AF42A9
:1002C00029D826D05B46A41BBD41002B00DA79E07B
:1002D000002200230092019301235A469340019388
:1002E000012342469340009319E08242D0D9002274
:1002F0000023009201930C9B002B01D01C605D60D9
:100300000098019903B03CBC90469946A246AB4682
:10031000F0BDA342D6D900220023009201934346A8
:10032000002BE8D0FB0772081A4346467B080EE014
:10033000AB4201D1A2420CD8A41A9D41012024193C
:100340006D410021013E24184D41002E06D0AB42E4
:10035000EED9013E24196D41002EF8D15B4600987C
:10036000019900196941002B22DB2B005A46D3402A
:100370002A004446E2401C005B461500002B2CDBA3
:1003800026009E40330026004746BE403200801AB9
:10039000994100900191AEE7424620239B1A5246B4
:1003A000DA40414613004A468A4017001F4382E75D
:1003B000424620239B1A2A0046469A402300F340D7
:1003C0001343D5E74246202300219B1A00220091C7
:1003D00001920122DA40019282E742462023260060
:1003E0009B1ADE402F00B446974066463B003343DD
:1003F000C9E7C04610B5002903D100F007F8203046
:1004000002E0081C00F002F810BDC0461C210123C8
:100410001B04984201D3000C10391B0A984201D3E7
:10042000000A08391B09984201D30009043902A2C5
:10043000105C40187047C04604030202010101012C
:100440000000000000000000FA21084B10B58900F0
:1004500004001868FFF762FE00F06EF80120002229
:100460002100404200F02EF8002010BD00000020C6
:100470004023064A10B5116800200B431360FFF7B4
:10048000E3FF01F0DFFA002010BDC046002002406B
:10049000024A1368013313607047C04620000020F1
:1004A000014B18687047C0462000002013B501902A
:1004B000FFF7F6FF0400FFF7F3FF019B001B9842D4
:1004C000F9D313BD70B58901002814DA0F23C0B227
:1004D0000340083B114A9B089B009B1803221040D5
:1004E0009040FC321500114085408140DC69AC43EE
:1004F0002143D96170BD032583082840A840FC35FD
:100500002E00074A9B009B18C0228640294081404C
:1005100092009C58B44321439950EBE700ED00E072
:1005200000E100E01F2318401E3B8340014A136096
:100530007047C04600E100E0094A431E0120934293
:100540000DD8C021074A08485360036A09061B02F8
:100550001B0A0B430362002007239060136070475F
:10056000FFFFFF0010E000E000ED00E0054B1A681F
:10057000042802D110431860704704218A431A608E
:10058000FAE7C04610E000E0704710B5FFF7FCFF47
:1005900010BD0000F0B5554A0B688218541EA241E8
:1005A00085B00193002305320392019ADA4001D10C
:1005B00005B0F0BD01259D40019A2A40009200D16E
:1005C00091E04A6894461022644694432200013C1C
:1005D000022A1FD107240F271C40A400A740DA08D5
:1005E00092008218166ABE430F69A7403E43166206
:1005F00003245E00B4408268A243CC68B440224326
:1006000082606246D206D20F9A404468AC432243CD
:10061000426001E0012CEBD9032634005D00AC40C0
:100620006246E4433240AA40076827403A430260EA
:10063000C26814408A68AA4014436246C460D2006B
:1006400051D501252A4C0F27626B2A431D003540E6
:10065000AD00AF406263274A9C08A400A418A268BA
:10066000BA43A0270292FF050022B84210D0224FC1
:100670000132B8420CD0214F0132B84208D0204F8D
:100680003200B84204D01F4E0132B04200D0039A6B
:10069000AA406746029D2A43A2601B4A009C166836
:1006A000009DE4433543FF0301D4350025406746F0
:1006B00015605668009D3543BF0301D435002540C1
:1006C000674655609668009D3543FF0201D43500AA
:1006D000254067469560D568009E2E43BF0201D431
:1006E00025402E00D66001335FE7C04600E4FFAF2F
:1006F00000100240000001400004005000080050BB
:10070000000C00500010005000040140002A01D0ED
:10071000816170478162FCE74369594041617047DC
:10072000044B10B55A69104202D0586101F070F9BB
:1007300010BDC04600040140F022174B30B5D96807
:1007400011420BD000230121144802688A431A4346
:100750000260006808405840084030BD8021C02237
:100760009D6B49050E4C52010D420AD023681A4078
:10077000C0235B019A42E5D10A4BC0184342434172
:10078000E1E79D6B294399632168074C0A40996B07
:1007900021409963ECE7C04600100240002002406F
:1007A000007000400040FFFFFFFFFFEFF0B503685F
:1007B00085B00400DB074ED423689B0700D59FE07B
:1007C0002368DB0635D50C23BC4DEA681A4200D0FD
:1007D000E9E02B689B0502D5E369002B50D0E022AD
:1007E0006B68606A12021340984200D8C9E0FFF7B4
:1007F000A3FF002844D16B68B14A1340626A1343D7
:100800006B606A68236A12021B06120A13436B604C
:10081000636AEA68590B802301311B028B40120680
:10082000A849120F8A5C0020D340A74A1360FFF743
:100830000BFE23681B0700D5ECE023685B0700D59F
:100840000FE123689B0600D590E1A16A002900D042
:10085000C0E1002015E00C21984DEB680B40082BFF
:1008600008D08023EA685B020A408A420BD1EA681A
:100870001A4208D02B689B039ED56368002B9BD13E
:10088000012005B0F0BD62689A4212D12A68134374
:100890002B60FFF705FE80260700B6022B68334267
:1008A00000D089E7FFF7FCFDC01B6428F6D90320C0
:1008B000E7E7A021C9028A4205D180222968D20235
:1008C0000A432A60E2E729688048014029602968D4
:1008D0000B400393039B7E492B680B402B60002A3F
:1008E000D7D1FFF7DDFD80260700B6022B68334223
:1008F00000D161E7FFF7D4FDC01B6428F6D9D6E725
:100900000C216E4DEA680A40042A06D0EB680B40C1
:100910008B4210D1EB68DB030DD42B685B0702D54B
:10092000E368012BACD16A6823696A491B020A405B
:1009300013436B6044E7E2682B68002A10D009215A
:100940008B4313432B60FFF7ABFD042607002B6896
:100950003342E8D1FFF7A4FDC01B0228F7D9A6E770
:10096000012293432B60FFF79BFD042607002B68B1
:10097000334200D124E7FFF793FDC01B0228F6D9CC
:1009800095E76B684E4A134003436B606A68236ABD
:1009900012021B06120A13436B60FFF7CDFE0028FC
:1009A00000D135E76CE7E369002B20D080232A686B
:1009B0005B0013432B60FFF773FD80260700B60032
:1009C0002B6833420DD06B683D4A1340626A134373
:1009D0006B606A68236A12021B06120A13436B607B
:1009E00027E7FFF75DFDC01B0228E9D95FE72B6809
:1009F000394A802613402B60FFF752FD0700B600EE
:100A00002B68334200D114E7FFF74AFDC01B0228D0
:100A1000F6D94CE762690123284D002A10D02A6DCF
:100A2000022613432B65FFF73BFD07002B6D334276
:100A300000D002E7FFF734FDC01B0228F6D936E7E5
:100A40002A6D02269A432A65FFF72AFD07002B6DBF
:100A5000334200D1F1E6FFF723FDC01B0228F6D98F
:100A600025E780230021154D5B05AA6B00911A42F2
:100A700004D1AA6B1343AB63012300938027174E65
:100A80007F0033683B4208D08022A3685200934223
:100A900026D12A6D13432B6547E033683B4333600F
:100AA000FFF7FEFC019033683B42EDD1FFF7F8FC05
:100AB000019BC01A6428F6D9F9E6C046001002402E
:100AC000FF1FFFFF811C000800000020FFFFFEFF4A
:100AD000FFFFFBFFFFE0FFFFFFFEFFFF0070004096
:100AE000002B16D12B6D604A802713402B652B6D90
:100AF0005E4ABF0013402B65FFF7D2FC06002B6D4A
:100B00003B422AD0FFF7CCFC594B801B9842F6D9C8
:100B1000CDE6A021C9008B420DD18023296DDB00D9
:100B20000B432B652B6D1A432A65FFF7B9FC802711
:100B30000600BF000EE02B6D4B4A13402B652B6D5A
:100B40004A4A1340A7E7FFF7ABFC494B801B98428A
:100B500000D9ACE62B6D3B42F5D0009B012B00D0B9
:100B60006FE6AB6B434A1340AB636AE6A1690123AE
:100B7000414D424A002918D0A96802261943A960AC
:100B8000696B0B436B638023116A9B010B431362F8
:100B9000FFF786FC0700AB68334200D055E6FFF74D
:100BA0007FFCC01B0228F6D981E6A968022699437A
:100BB000A960136A32490B401362FFF771FC07000A
:100BC000AB68334200D140E6FFF76AFCC01B022845
:100BD000F6D96CE60C22284D0120EB6813409342B5
:100BE00000D14EE62B68274A13402B6002292BD1F7
:100BF000FFF756FC80260700B6042B6833421DD150
:100C0000216BE36AEA680B431F490A401343626B96
:100C100080241343EB6080232A685B0413432B601A
:100C2000FFF73EFC0600A4042B68234200D010E628
:100C3000FFF736FC801B0228F6D938E6FFF730FCB8
:100C4000C01B0228D9D932E6FFF72AFC802406000F
:100C5000A4042B68234200D1FBE5FFF721FC801B95
:100C60000228F6D923E6C046FFFEFFFFFFFBFFFF89
:100C700088130000FFFFFFEF00100240000001405A
:100C8000FFDFFFFFFFFFFFFEFFFF02FF0C22184BFD
:100C900010B5D9680A40082A26D00C2A06D0042AA2
:100CA0001AD11B68DB0621D4124810BD8A021248F3
:100CB000120F825C0902D868890F0131C00304D584
:100CC0000E485043FFF72AFAEFE71B68DB0601D511
:100CD0000B48F6E70748F4E780205B6800021B0436
:100CE0005B0F01339840E0E70448DEE70448DCE7A7
:100CF000001002400024F400991C000800127A0041
:100D000000093D00F7B50122534C0600236801910C
:100D100013408B4228D33268930731D4D30737D49A
:100D20000123226801991A40914200D285E032687D
:100D30004A4C530700D587E0130706D5E2683369AC
:100D40004749DB000A401343E360FFF79FFFE36876
:100D5000444A1B061B0FD35CD840434B186000204D
:100D6000FFF772FB00200AE02368019993430B43CD
:100D7000236023681340019A9A42CCD00120FEBD23
:100D8000F0203649CB688343B0680343CB60C5E7A6
:100D9000324D72682B68022A19D19B03EED50321CC
:100DA000EB688B431343EB60FFF77AFB7368070034
:100DB000022B19D10C22EB681340082BB0D0FFF79F
:100DC0006FFB2A4BC01B9842F4D90320D7E7032AB4
:100DD00002D19B01E3D4D1E7012A02D15B07DED423
:100DE000CCE79B05DBD4C9E7032B0CD10C22EB68C5
:100DF0001340934200D193E7FFF752FB1B4BC01BFC
:100E00009842F3D9E1E7012B11D00C22EB68134291
:100E100000D185E7FFF744FB144BC01B9842F4D97F
:100E2000D3E7FFF73DFB114BC01B9842CDD80C22F6
:100E3000EB681340042BF4D172E722689A432260D6
:100E400022681A429AD172E7E36809490B40F168B7
:100E50000B43E36070E7C0460020024000100240F0
:100E6000FFC7FFFF811C000800000020881300005E
:100E7000FFF8FFFF014B18687047C04600000020D4
:100E8000044B054ADB685B055B0FD35C034A1068C3
:100E9000D840704700100240911C0008000000205C
:100EA000044B054ADB689B045B0FD35C034A106864
:100EB000D840704700100240911C0008000000203C
:100EC0008223F7B502681B0105001A4248D080232F
:100ED0000021654C5B05A26B00911A4204D1A26B04
:100EE0001343A363012300938027604E7F00336880
:100EF0003B4277D06968C022080023689203134000
:100F00001040834203D1A8680240934209D0C02315
:100F10000A009B021A409A4203D1236801209B03D6
:100F200071D4C022236D9202134000D06CE0696836
:100F3000C0230A009B021A409A4207D123684C48FA
:100F40000340C020800301400B432360236D1A43FC
:100F5000009B2265012B03D1A36B464A1340A36378
:100F60002B68DA0706D503203F49CA6C8243E8683C
:100F70000243CA649A0706D50C203B49CA6C8243D7
:100F800028690243CA645A0706D537493A48CA6CE9
:100F9000024068690243CA641A0706D532493748D5
:100FA000CA6C0240A8690243CA64DA0506D52E4914
:100FB0003348CA6C0240E8690243CA645A0606D53F
:100FC00029493048CA6C0240686A0243CA6400205A
:100FD0001B0618D5244A2C49D36C0B40296A0B43B5
:100FE000D36410E033683B433360FFF759FA019054
:100FF00033683B4200D07DE7FFF752FA019BC01AED
:101000006428F5D90320FEBD11408B4202D0296827
:10101000890608D4A9680A40934200D187E72B6863
:101020001B0500D483E78022216D206D120302434B
:101030002265226D124B15480B4002402265236544
:10104000CB0500D473E7FFF72BFA80270600BF001B
:10105000236D3B4200D06AE7FFF722FA0C4B801B5E
:101060009842F5D9CEE7C04600100240007000401B
:10107000FFFFCFFFFFFFFFEFFFF3FFFFFFCFFFFFFC
:10108000FFFFFCFFFFFFFFFBFFFFF3FFFFFFF7FF8B
:101090008813000070B5102800D1CDE01ED80228BA
:1010A00000D19EE004D8012800D181E000203BE07F
:1010B000042800D1A6E00828F8D1C0216A4A890195
:1010C000D36C0B4000D191E0802189018B4200D18B
:1010D00078E0802252019342E8D179E040283FD065
:1010E0000FD82028E2D1C02580205F49AD020B6DCA
:1010F0000A6D40022A4082420DD19805C00FC003FC
:1011000012E080235B00984200D19DE080231B0108
:101110009842E8D0CAE78024A402A24205D1022066
:101120000340181E00D0514870BD0020AA42FBD1D8
:101130000B682342F8D0C0220B6880219203134031
:1011400089038B4208D0934200D18AE08022520367
:10115000934203D14648E7E74648E5E74648E3E7D8
:101160008020414BC004DA6C10401AD11A689201F9
:10117000DAD5DA684148D9689202120F805C090218
:10118000DA68890F0131D20307D41B68DB0606D465
:101190003B4B5843FEF7C2FFC6E73A4BF9E7364BE5
:1011A000F7E702229B681340181EBDD03648BBE704
:1011B00003212D4AD36C0B4002D1FFF771FEB3E738
:1011C000022B03D113680422134027E0012B02D124
:1011D000FFF75CFDA8E70020032BA5D1106D80056B
:1011E0008CE70C21204AD36C0B4002D1FFF748FE5C
:1011F0009AE7082BE6D0042BEAD000200C2B00D075
:1012000092E7EBE7C021184A0901D36C0B40EDD0FF
:1012100080242401A34206D113680340181E00D184
:1012200082E7174880E78020C0008342D0D00020AA
:101230008B4200D078E7D1E70B4B986B8023DB0320
:10124000184000D170E7D1E7C021074A8902D36C6A
:101250000B40CBD0802189028B42B3D08022520236
:1012600039E70A4860E7C046001002408890000055
:1012700080841E0040420F0000093D00991C0008B8
:101280000024F40000127A00006CDC0220A10700A8
:1012900070B504000120002C37D0250051352B7883
:1012A000DBB2002B05D1220050321370200000F079
:1012B000E9FB0223402221682B700B68A06893434E
:1012C0000B606368A2690343E0680343206903433A
:1012D00060690343E0690343206A0343A06A034350
:1012E00080208000104003430B600423120C1A403E
:1012F000636A00201A43E36A4A600B61CB69034AC0
:101300001340CB61012360652B7070BDFFF7FFFFB9
:10131000F8B50500036882680069196802436869C6
:10132000824E0243E8690243814801400A431A6041
:101330005A6880490A40E9680A435A60A969B34279
:1013400001D02A6A11439A687B4802400A439A6096
:101350007A4A934217D10322794BDB6C1340794AC6
:10136000D45C0220FFF796FE2F680300B74266D1D7
:10137000082C00D9D7E02000FEF7C6FE31D539D5BC
:1013800059D5D5D55C00704A934205D10C226C4BDF
:10139000DB6C13406D4AE3E76D4A00249342E0D0D2
:1013A0006C4A9342DDD01034B342DAD1C02280219E
:1013B000634B1201DB6CC90013400C3C8B42D0D054
:1013C00004D80024A342CCD01024CAE780210224F0
:1013D00009018B42C5D006349342C2D0F4E7FFF72F
:1013E0004FFD00240300A04206D12000F8BD544B5D
:1013F0001B68DB0621D4584B03216A680124514342
:101400009942F2D811039942EFD300275608190EDA
:101410001802801979413B00FEF70CFF4F4BC218B0
:101420004F4B9A42E1D82B68D8600024DDE7FFF7E4
:101430002DFCD6E780231B02DEE74A4BDCE7802247
:10144000E969120291423FD1082C3AD82000FEF7F8
:101450005BFE050F17383038383833006A685B0098
:10146000110050081818FEF759FE002480B216E04B
:10147000FFF716FD6B6840005B08C0186968F2E76B
:101480002F4B69681C68102348081C4002D0364B5B
:10149000C018E8E7354BC018FEF740FE80B20F23B6
:1014A00002009A43130000072A68400F1843D060D7
:1014B0009BE7FFF7EBFBDDE76B68580880235B02D7
:1014C000DBE701240020EAE7082C2CD82000FEF7F7
:1014D0001BFE050F122A222A2A2A2500FFF7D0FC1C
:1014E00069684B081818FEF719FE80B2F8609CE78F
:1014F000FFF7D6FCF4E7124B69681C681023480814
:101500001C4001D0174BEDE7134BC018FEF706FE49
:1015100080B2F86069E7FFF7B9FBE1E7802369680B
:101520001B024808DEE701245FE7C0460048004090
:10153000F369FFEFFFCFFFFFFFF4FFFF003801402B
:1015400000100240541C000800440040581C0008D1
:10155000004C0040005000400024F40000FDFFFF5C
:10156000FFFC0F0000093D0000127A000048E8016E
:10157000436A30B5DA0706D50168284C4A6822402C
:10158000846A22434A609A0706D50168244C4A6857
:101590002240C46A22434A605A0706D50168214C9A
:1015A0004A682240046B22434A601A0706D5016844
:1015B0001D4C4A682240446B22434A60DA0606D535
:1015C00001681A4C8A682240846B22438A609A061A
:1015D00006D50168164C8A682240C46B22438A6093
:1015E0005A0610D50168134D4A68046C2A402243FC
:1015F0004A6080225203944205D14A680E4C224030
:10160000446C22434A601B0606D502680B495368A6
:101610000B40816C0B43536030BDC046FFFFFDFFA4
:10162000FFFFFEFFFFFFFBFFFF7FFFFFFFEFFFFF5F
:10163000FFDFFFFFFFFFEFFFFFFF9FFFFFFFF7FF52
:10164000F8B504000E0015001F002268D36933406E
:101650009B1B59424B41AB4201D0002018E0069B36
:101660000133F3D0069B002B13D123680C491A6871
:1016700003200A401A609A68A331FF318A439A60B6
:1016800022002023693213705370002368342370C2
:10169000F8BDFEF705FF069BC01B8342D5D2E4E7E9
:1016A0005FFEFFFFF0B5070085B0039369373B7815
:1016B00004000D0016000220202B46D1013800291D
:1016C00043D0002A41D08023A2685B019A4204D112
:1016D0002369002B01D1014237D1230068331A78E6
:1016E0000220012A31D001221A700023E36621333F
:1016F0003B70FEF7D5FE230050331E805E808026AF
:1017000002907601210052310A8892B2002A0DD14E
:10171000039B402100932000029BFFF791FF0028CC
:1017200012D1202368343B7020700EE00B88002219
:10173000013B9BB20B80039B802100932000029B06
:10174000FFF77EFF002802D0032005B0F0BDA3689C
:101750002268B34208D12369002B05D12B880235BA
:10176000DB05DB0D9362CDE72B7801359362C9E78A
:1017700073B500260400C666FEF792FE23680500D6
:101780001B681B0717D423681B685B070AD58021D9
:101790000F4B00220093C9032B002000FFF750FFDE
:1017A000002813D1220020230020693268341370EE
:1017B000537020700BE08021054B320000938903A9
:1017C00003002000FFF73CFF0028DCD0032076BD9B
:1017D000FFFFFF0170B5041E01D1012070BD05009F
:1017E00069352B78DBB2002B04D10200683213700C
:1017F00000F076F92423012122682B7013688B43B3
:101800001360636A002B02D02000FFF7B1FE2000B6
:10181000FFF77EFD0128E0D0236808495A682000C0
:101820000A402A215A609A688A439A6001221968FC
:101830000A431A60FFF79CFFD0E7C046FFB7FFFFDF
:101840002449254A0B6830B51A4080231B011343F5
:101850000B60A0239FB0DB02119380235B021B93DC
:1018600080235B031C938023012502241B0410A802
:1018700010951A941D93FEF799FF002800D0FEE7FB
:101880000F230390019304900C3B0590290001A8BD
:101890000293FFF737FA002800D0FEE70A9006A867
:1018A0000694FFF70DFB041E00D0FEE7FFF7E2FAF7
:1018B000FA218900FEF732FCFEF73EFE0420FEF717
:1018C00055FE0120220021004042FEF7FBFD1FB023
:1018D00030BDC04600700040FFE7FFFFF0B58BB0A1
:1018E000FEF7C6FDFFF7ACFF0420424B0125D96A85
:1018F00084270143D962DA6AFF0002400192019A0B
:10190000D96A7C300143D9620221DA6A002402409C
:10191000A0200292029ADA6AC0052A43DA62DA6AE1
:10192000354E2A400392039ADA6A0A43DA62DB6A86
:1019300000220B4004933900049BFEF7E7FE80234E
:1019400005A99B012D48059306960794FEF722FEF4
:10195000A02005A9C0050597069507940894FEF7F1
:1019600019FEA020402305A9C005059306960794FB
:10197000FEF710FE220021000720FEF7A3FD07203E
:10198000FEF7D0FD1E481F4B84600360E1235B021D
:1019900043600C23C460046143618461C4610462D8
:1019A0004462FFF717FFA04200D0FEE7164B174A2C
:1019B00098601A60822252005A60FC329A61FA3AA8
:1019C000D86018615861D861186258629862FF3A0D
:1019D0001800DA62FFF75CFC002800D0FEE78021E7
:1019E000A0202A00C005C900FEF790FE0A20FEF7DD
:1019F0005DFDFEE7001002400000111000080050DD
:101A00007C00002000440040240000200030014001
:101A1000802310B59B01984201D040280AD1A02014
:101A20002021C005FEF778FE034B1B220349044822
:101A3000FFF738FE10BDC046FFFF0000651C000820
:101A40007C00002001220E4B10B5596B05200A4383
:101A50005A638022996B52050A439A6300224042DE
:101A60001100FEF72FFD0022022011004042FEF778
:101A700029FD0022012011004042FEF723FD10BD88
:101A80000010024070B5134B026886B09A421ED116
:101A90008023114A5B01516BA0200B435363C02389
:101AA0000024022603255B0101A9C00501930296CB
:101AB000039404950594FEF76DFD082301A90748DA
:101AC00001930296039404950594FEF763FD06B016
:101AD00070BDC046003001400010024000040050BC
:101AE0007FB50D4B02689A4214D180230B4A9B02AA
:101AF000916BA0200B4393630C2301930A3B029349
:101B0000002303930333049301A90133C005059314
:101B1000FEF740FD07B000BD004400400010024049
:101B20007047704710B5FEF7B3FCFEF72EFD10BDF1
:101B300010B54020FEF7F4FD80208001FEF7F0FD97
:101B400010BD00008022104B520019680A431A6031
:101B5000DA680E490A40DA601A680D490A40012124
:101B60001A609A688A439A601A680A490A401A6099
:101B7000DA6809490A40DA6000221A618022074BBC
:101B800012059A607047C046001002400C40FF8862
:101B9000F6FFF6FEFFFFFBFFFFFF02FF00ED00E098
:101BA0000D488546002103E00C4B5B58435004313F
:101BB0000B480C4B42189A42F6D30B4A02E0002322
:101BC00013600432094B9A42F9D3FFF7BBFF00F0D0
:101BD00011F8FFF783FEFEE700500020B41C000858
:101BE000000000200400002004000020EC00002081
:101BF000FEE7000070B500260C4D0D4C641BA410D0
:101C0000A64209D1002600F019F80A4D0A4C641BBF
:101C1000A410A64205D170BDB300EB589847013619
:101C2000EEE7B300EB5898470136F2E7AC1C00082A
:101C3000AC1C0008AC1C0008B01C0008F8B5C0467D
:101C4000F8BC08BC9E467047F8B5C046F8BC08BC56
:041C50009E467047F5
:101C540001040208001010100410101002101010DB
:101C640008447269766577617920416C61726D20F0
:101C7400547269676765726564210A0D000000008B
:101C84000000000000010203040607080900000028
:101C94000001020304030406080C1018203000009D
:081CA400D0E5FF7F0100000004
:041CAC00E900000843
:041CB000C100000867
:041CB40080841E000A
:0400000508001BA133
:00000001FF
