:020000040800F2
:100000000050002085270008D5270008D5270008C4
:1000100000000000000000000000000000000000E0
:100020000000000000000000000000008126000821
:10003000000000000000000083260008852600085C
:10004000D5270008D5270008D5270008D5270008A0
:10005000D5270008D5270008D527000891260008D5
:10006000D5270008D5270008D5270008D527000880
:10007000D5270008D5270008D5270008D527000870
:10008000D5270008D5270008D52700080000000064
:10009000D5270008D5270008D5270008D527000850
:1000A000D5270008D5270008D5270008D527000840
:1000B000D5270008D5270008D5270008D527000830
:1000C00010B5064C2378002B07D1054B002B02D02E
:1000D000044800E000BF0123237010BD040000208D
:1000E00000000000F0280008044B10B5002B03D0DE
:1000F0000349044800E000BF10BDC04600000000F6
:1001000008000020F02800080023C25C0133002A08
:10011000FBD1581E7047000002B4714649084900DF
:10012000095C49008E4402BC7047C0460022430867
:100130008B4274D303098B425FD3030A8B4244D3AF
:10014000030B8B4228D3030C8B420DD3FF220902F1
:1001500012BA030C8B4202D31212090265D0030BB0
:100160008B4219D300E0090AC30B8B4201D3CB03A6
:10017000C01A5241830B8B4201D38B03C01A5241E8
:10018000430B8B4201D34B03C01A5241030B8B42EA
:1001900001D30B03C01A5241C30A8B4201D3CB02D5
:1001A000C01A5241830A8B4201D38B02C01A5241BA
:1001B000430A8B4201D34B02C01A5241030A8B42BD
:1001C00001D30B02C01A5241CDD2C3098B4201D3D5
:1001D000CB01C01A524183098B4201D38B01C01A53
:1001E000524143098B4201D34B01C01A52410309CA
:1001F0008B4201D30B01C01A5241C3088B4201D379
:10020000CB00C01A524183088B4201D38B00C01A25
:10021000524143088B4201D34B00C01A5241411A4C
:1002200000D20146524110467047FFE701B5002059
:1002300000F006F802BDC0460029F7D076E7704707
:100240007047C046002B11D1002A0FD1002900D1E0
:10025000002802D00021C943081C07B4024802A1AB
:100260004018029003BDC046D9FFFFFF03B46846A3
:1002700001B5029800F006F8019B9E4602B00CBC46
:100280007047C046F0B557464E464546DE46E0B597
:10029000040083B00D00924699468B422FD82CD093
:1002A0004946504600F0AEF829000600200000F054
:1002B000A9F8331A9846203B9B4600D574E0534674
:1002C0005A4693401F005346424693401E00AF4299
:1002D00029D826D05B46A41BBD41002B00DA79E06B
:1002E000002200230092019301235A469340019378
:1002F000012342469340009319E08242D0D9002264
:100300000023009201930C9B002B01D01C605D60C8
:100310000098019903B03CBC90469946A246AB4672
:10032000F0BDA342D6D90022002300920193434698
:10033000002BE8D0FB0772081A4346467B080EE004
:10034000AB4201D1A2420CD8A41A9D41012024192C
:100350006D410021013E24184D41002E06D0AB42D4
:10036000EED9013E24196D41002EF8D15B4600986C
:10037000019900196941002B22DB2B005A46D3401A
:100380002A004446E2401C005B461500002B2CDB93
:1003900026009E40330026004746BE403200801AA9
:1003A000994100900191AEE7424620239B1A5246A4
:1003B000DA40414613004A468A4017001F4382E74D
:1003C000424620239B1A2A0046469A402300F340C7
:1003D0001343D5E74246202300219B1A00220091B7
:1003E00001920122DA40019282E742462023260050
:1003F0009B1ADE402F00B446974066463B003343CD
:10040000C9E7C04610B5002903D100F007F8203035
:1004100002E0081C00F002F810BDC0461C210123B8
:100420001B04984201D3000C10391B0A984201D3D7
:10043000000A08391B09984201D30009043902A2B5
:10044000105C40187047C04604030202010101011C
:100450000000000000000000FA21084B10B58900E0
:1004600004001868FFF762FE00F06EF80120002219
:100470002100404200F02EF8002010BD00000020B6
:100480004023064A10B5116800200B431360FFF7A4
:10049000E3FF02F0D5F8002010BDC0460020024066
:1004A000024A1368013313607047C04624000020DD
:1004B000014B18687047C0462400002013B5019016
:1004C000FFF7F6FF0400FFF7F3FF019B001B9842C4
:1004D000F9D313BD70B58901002814DA0F23C0B217
:1004E0000340083B114A9B089B009B1803221040C5
:1004F0009040FC321500114085408140DC69AC43DE
:100500002143D96170BD032583082840A840FC35EC
:100510002E00074A9B009B18C0228640294081403C
:1005200092009C58B44321439950EBE700ED00E062
:1005300000E100E01F2318401E3B8340014A136086
:100540007047C04600E100E0094A431E0120934283
:100550000DD8C021074A08485360036A09061B02E8
:100560001B0A0B430362002007239060136070474F
:10057000FFFFFF0010E000E000ED00E0054B1A680F
:10058000042802D110431860704704218A431A607E
:10059000FAE7C04610E000E0704710B5FFF7FCFF37
:1005A00010BD0000F0B5554A0B688218541EA241D8
:1005B00085B00193002305320392019ADA4001D1FC
:1005C00005B0F0BD01259D40019A2A40009200D15E
:1005D00091E04A6894461022644694432200013C0C
:1005E000022A1FD107240F271C40A400A740DA08C5
:1005F00092008218166ABE430F69A7403E431662F6
:1006000003245E00B4408268A243CC68B440224315
:1006100082606246D206D20F9A404468AC432243BD
:10062000426001E0012CEBD9032634005D00AC40B0
:100630006246E4433240AA40076827403A430260DA
:10064000C26814408A68AA4014436246C460D2005B
:1006500051D501252A4C0F27626B2A431D003540D6
:10066000AD00AF406263274A9C08A400A418A268AA
:10067000BA43A0270292FF050022B84210D0224FB1
:100680000132B8420CD0214F0132B84208D0204F7D
:100690003200B84204D01F4E0132B04200D0039A5B
:1006A000AA406746029D2A43A2601B4A009C166826
:1006B000009DE4433543FF0301D4350025406746E0
:1006C00015605668009D3543BF0301D435002540B1
:1006D000674655609668009D3543FF0201D435009A
:1006E000254067469560D568009E2E43BF0201D421
:1006F00025402E00D66001335FE7C04600E4FFAF1F
:1007000000100240000001400004005000080050AA
:10071000000C00500010005000040140002A01D0DD
:10072000816170478162FCE74369594041617047CC
:10073000044B10B55A69104202D0586101F00CFF09
:1007400010BDC04600040140F022174B30B5D968F7
:1007500011420BD000230121144802688A431A4336
:100760000260006808405840084030BD8021C02227
:100770009D6B49050E4C52010D420AD023681A4068
:10078000C0235B019A42E5D10A4BC0184342434162
:10079000E1E79D6B294399632168074C0A40996BF7
:1007A00021409963ECE7C04600100240002002405F
:1007B000007000400040FFFFFFFFFFEFF0B503684F
:1007C00085B00400DB074ED423689B0700D59FE06B
:1007D0002368DB0635D50C23BC4DEA681A4200D0ED
:1007E000E9E02B689B0502D5E369002B50D0E0229D
:1007F0006B68606A12021340984200D8C9E0FFF7A4
:10080000A3FF002844D16B68B14A1340626A1343C6
:100810006B606A68236A12021B06120A13436B603C
:10082000636AEA68590B802301311B028B40120670
:10083000A849120F8A5C0020D340A74A1360FFF733
:100840000BFE23681B0700D5ECE023685B0700D58F
:100850000FE123689B0600D590E1A16A002900D032
:10086000C0E1002015E00C21984DEB680B40082BEF
:1008700008D08023EA685B020A408A420BD1EA680A
:100880001A4208D02B689B039ED56368002B9BD12E
:10089000012005B0F0BD62689A4212D12A68134364
:1008A0002B60FFF705FE80260700B6022B68334257
:1008B00000D089E7FFF7FCFDC01B6428F6D90320B0
:1008C000E7E7A021C9028A4205D180222968D20225
:1008D0000A432A60E2E729688048014029602968C4
:1008E0000B400393039B7E492B680B402B60002A2F
:1008F000D7D1FFF7DDFD80260700B6022B68334213
:1009000000D161E7FFF7D4FDC01B6428F6D9D6E714
:100910000C216E4DEA680A40042A06D0EB680B40B1
:100920008B4210D1EB68DB030DD42B685B0702D53B
:10093000E368012BACD16A6823696A491B020A404B
:1009400013436B6044E7E2682B68002A10D009214A
:100950008B4313432B60FFF7ABFD042607002B6886
:100960003342E8D1FFF7A4FDC01B0228F7D9A6E760
:10097000012293432B60FFF79BFD042607002B68A1
:10098000334200D124E7FFF793FDC01B0228F6D9BC
:1009900095E76B684E4A134003436B606A68236AAD
:1009A00012021B06120A13436B60FFF7CDFE0028EC
:1009B00000D135E76CE7E369002B20D080232A685B
:1009C0005B0013432B60FFF773FD80260700B60022
:1009D0002B6833420DD06B683D4A1340626A134363
:1009E0006B606A68236A12021B06120A13436B606B
:1009F00027E7FFF75DFDC01B0228E9D95FE72B68F9
:100A0000394A802613402B60FFF752FD0700B600DD
:100A10002B68334200D114E7FFF74AFDC01B0228C0
:100A2000F6D94CE762690123284D002A10D02A6DBF
:100A3000022613432B65FFF73BFD07002B6D334266
:100A400000D002E7FFF734FDC01B0228F6D936E7D5
:100A50002A6D02269A432A65FFF72AFD07002B6DAF
:100A6000334200D1F1E6FFF723FDC01B0228F6D97F
:100A700025E780230021154D5B05AA6B00911A42E2
:100A800004D1AA6B1343AB63012300938027174E55
:100A90007F0033683B4208D08022A3685200934213
:100AA00026D12A6D13432B6547E033683B433360FF
:100AB000FFF7FEFC019033683B42EDD1FFF7F8FCF5
:100AC000019BC01A6428F6D9F9E6C046001002401E
:100AD000FF1FFFFF5629000800000020FFFFFEFF58
:100AE000FFFFFBFFFFE0FFFFFFFEFFFF0070004086
:100AF000002B16D12B6D604A802713402B652B6D80
:100B00005E4ABF0013402B65FFF7D2FC06002B6D39
:100B10003B422AD0FFF7CCFC594B801B9842F6D9B8
:100B2000CDE6A021C9008B420DD18023296DDB00C9
:100B30000B432B652B6D1A432A65FFF7B9FC802701
:100B40000600BF000EE02B6D4B4A13402B652B6D4A
:100B50004A4A1340A7E7FFF7ABFC494B801B98427A
:100B600000D9ACE62B6D3B42F5D0009B012B00D0A9
:100B70006FE6AB6B434A1340AB636AE6A16901239E
:100B8000414D424A002918D0A96802261943A9609C
:100B9000696B0B436B638023116A9B010B431362E8
:100BA000FFF786FC0700AB68334200D055E6FFF73D
:100BB0007FFCC01B0228F6D981E6A968022699436A
:100BC000A960136A32490B401362FFF771FC0700FA
:100BD000AB68334200D140E6FFF76AFCC01B022835
:100BE000F6D96CE60C22284D0120EB6813409342A5
:100BF00000D14EE62B68274A13402B6002292BD1E7
:100C0000FFF756FC80260700B6042B6833421DD13F
:100C1000216BE36AEA680B431F490A401343626B86
:100C200080241343EB6080232A685B0413432B600A
:100C3000FFF73EFC0600A4042B68234200D010E618
:100C4000FFF736FC801B0228F6D938E6FFF730FCA8
:100C5000C01B0228D9D932E6FFF72AFC80240600FF
:100C6000A4042B68234200D1FBE5FFF721FC801B85
:100C70000228F6D923E6C046FFFEFFFFFFFBFFFF79
:100C800088130000FFFFFFEF00100240000001404A
:100C9000FFDFFFFFFFFFFFFEFFFF02FF0C22184BED
:100CA00010B5D9680A40082A26D00C2A06D0042A92
:100CB0001AD11B68DB0621D4124810BD8A021248E3
:100CC000120F825C0902D868890F0131C00304D574
:100CD0000E485043FFF72AFAEFE71B68DB0601D501
:100CE0000B48F6E70748F4E780205B6800021B0426
:100CF0005B0F01339840E0E70448DEE70448DCE797
:100D0000001002400024F4006E29000800127A004E
:100D100000093D00F7B50122534C060023680191FC
:100D200013408B4228D33268930731D4D30737D48A
:100D30000123226801991A40914200D285E032686D
:100D40004A4C530700D587E0130706D5E26833699C
:100D50004749DB000A401343E360FFF79FFFE36866
:100D6000444A1B061B0FD35CD840434B186000203D
:100D7000FFF772FB00200AE02368019993430B43BD
:100D8000236023681340019A9A42CCD00120FEBD13
:100D9000F0203649CB688343B0680343CB60C5E796
:100DA000324D72682B68022A19D19B03EED50321BC
:100DB000EB688B431343EB60FFF77AFB7368070024
:100DC000022B19D10C22EB681340082BB0D0FFF78F
:100DD0006FFB2A4BC01B9842F4D90320D7E7032AA4
:100DE00002D19B01E3D4D1E7012A02D15B07DED413
:100DF000CCE79B05DBD4C9E7032B0CD10C22EB68B5
:100E00001340934200D193E7FFF752FB1B4BC01BEB
:100E10009842F3D9E1E7012B11D00C22EB68134281
:100E200000D185E7FFF744FB144BC01B9842F4D96F
:100E3000D3E7FFF73DFB114BC01B9842CDD80C22E6
:100E4000EB681340042BF4D172E722689A432260C6
:100E500022681A429AD172E7E36809490B40F168A7
:100E60000B43E36070E7C0460020024000100240E0
:100E7000FFC7FFFF5629000800000020881300006C
:100E8000FFF8FFFF014B18687047C04600000020C4
:100E9000044B054ADB685B055B0FD35C034A1068B3
:100EA000D84070470010024066290008000000206A
:100EB000044B054ADB689B045B0FD35C034A106854
:100EC000D84070470010024066290008000000204A
:100ED0008223F7B502681B0105001A4248D080231F
:100EE0000021654C5B05A26B00911A4204D1A26BF4
:100EF0001343A363012300938027604E7F00336870
:100F00003B4277D06968C0220800236892031340EF
:100F10001040834203D1A8680240934209D0C02305
:100F20000A009B021A409A4203D1236801209B03C6
:100F300071D4C022236D9202134000D06CE0696826
:100F4000C0230A009B021A409A4207D123684C48EA
:100F50000340C020800301400B432360236D1A43EC
:100F6000009B2265012B03D1A36B464A1340A36368
:100F70002B68DA0706D503203F49CA6C8243E8682C
:100F80000243CA649A0706D50C203B49CA6C8243C7
:100F900028690243CA645A0706D537493A48CA6CD9
:100FA000024068690243CA641A0706D532493748C5
:100FB000CA6C0240A8690243CA64DA0506D52E4904
:100FC0003348CA6C0240E8690243CA645A0606D52F
:100FD00029493048CA6C0240686A0243CA6400204A
:100FE0001B0618D5244A2C49D36C0B40296A0B43A5
:100FF000D36410E033683B433360FFF759FA019044
:1010000033683B4200D07DE7FFF752FA019BC01ADC
:101010006428F5D90320FEBD11408B4202D0296817
:10102000890608D4A9680A40934200D187E72B6853
:101030001B0500D483E78022216D206D120302433B
:101040002265226D124B15480B4002402265236534
:10105000CB0500D473E7FFF72BFA80270600BF000B
:10106000236D3B4200D06AE7FFF722FA0C4B801B4E
:101070009842F5D9CEE7C04600100240007000400B
:10108000FFFFCFFFFFFFFFEFFFF3FFFFFFCFFFFFEC
:10109000FFFFFCFFFFFFFFFBFFFFF3FFFFFFF7FF7B
:1010A0008813000070B5102800D1CDE01ED80228AA
:1010B00000D19EE004D8012800D181E000203BE06F
:1010C000042800D1A6E00828F8D1C0216A4A890185
:1010D000D36C0B4000D191E0802189018B4200D17B
:1010E00078E0802252019342E8D179E040283FD055
:1010F0000FD82028E2D1C02580205F49AD020B6DBA
:101100000A6D40022A4082420DD19805C00FC003EB
:1011100012E080235B00984200D19DE080231B01F8
:101120009842E8D0CAE78024A402A24205D1022056
:101130000340181E00D0514870BD0020AA42FBD1C8
:101140000B682342F8D0C0220B6880219203134021
:1011500089038B4208D0934200D18AE08022520357
:10116000934203D14648E7E74648E5E74648E3E7C8
:101170008020414BC004DA6C10401AD11A689201E9
:10118000DAD5DA684148D9689202120F805C090208
:10119000DA68890F0131D20307D41B68DB0606D455
:1011A0003B4B5843FEF7C2FFC6E73A4BF9E7364BD5
:1011B000F7E702229B681340181EBDD03648BBE7F4
:1011C00003212D4AD36C0B4002D1FFF771FEB3E728
:1011D000022B03D113680422134027E0012B02D114
:1011E000FFF75CFDA8E70020032BA5D1106D80055B
:1011F0008CE70C21204AD36C0B4002D1FFF748FE4C
:101200009AE7082BE6D0042BEAD000200C2B00D064
:1012100092E7EBE7C021184A0901D36C0B40EDD0EF
:1012200080242401A34206D113680340181E00D174
:1012300082E7174880E78020C0008342D0D000209A
:101240008B4200D078E7D1E70B4B986B8023DB0310
:10125000184000D170E7D1E7C021074A8902D36C5A
:101260000B40CBD0802189028B42B3D08022520226
:1012700039E70A4860E7C046001002408890000045
:1012800080841E0040420F0000093D006E290008C6
:101290000024F40000127A00006CDC0220A1070098
:1012A000F7B51D0004000E000192FFF701F9019B44
:1012B0000700002B35D02268936833409E4235D119
:1012C0006B1CF9D0002D09D0FFF7F2F8C01B854246
:1012D000F1D203E06B1C25D0002D1DD1E021236845
:1012E0005A688A435A601A68A0398A4380211A6072
:1012F000A26A89018A4206D119680D480140196025
:1013000019680A431A602300012251331A7000231E
:101310005034237003200AE0FFF7CAF8C01B85424F
:10132000DCD32268936833409E42D3D10020FEBDB7
:10133000FFDFFFFF70B504000120002C37D025002F
:1013400051352B78DBB2002B05D1220050321370BF
:10135000200001F047F90223402221682B700B681E
:10136000A06893430B606368A2690343E06803438A
:101370002069034360690343E0690343206A034330
:10138000A06A034380208000104003430B600423C5
:10139000120C1A40636A00201A43E36A4A600B6128
:1013A000CB69034A1340CB61012360652B7070BD8C
:1013B000FFF7FFFFF0B5070051371D003B78040031
:1013C000DBB285B00220012B6ED1180000296BD052
:1013D000002A69D026005036019630788446664649
:1013E0000220012E60D00198037011333B7000235E
:1013F00080206365A286E286A26AE364A364A36395
:10140000A387E387216380012368824206D118689D
:10141000454E30401860186802431A608022A06868
:101420001202904204D180221868D20102431A604D
:1014300040221868104202D1186802431A60E0681E
:101440006268002839D1002A02D0E28E012A07D131
:101450004A1C22630A78DA60E38E013B9BB2E38682
:10146000E38E002B17D18023A26A9B019A4205D1FB
:10147000802322685B0111680B4313602B0000225C
:1014800002212000FFF70CFF002835D02023626DD9
:101490001343636507E02B00002202212000FFF7C1
:1014A000FFFE002802D0032005B0F0BD236B2268A8
:1014B000591C21631B78D360CEE7002A02D0E28E4C
:1014C000012A07D10A880231DA602163E38E013BE9
:1014D0009BB2E386E38E002BC5D02B0000220221B5
:1014E0002000FFF7DDFE0028DDD1236B226819887C
:1014F0000233D1602363E9E72B0001228021200021
:10150000FFF7CEFE0028C1D1A368002B05D12368C8
:10151000DA6803929B680393039B01233B700023CB
:10152000019A1370C0E7C046FFDFFFFFF0B585B03A
:10153000040002A8063001900020019D28802500AB
:1015400051352878012804D02E780220222E00D090
:1015500083E00120002900D17FE0002A00D17CE057
:10156000002B7AD026005036307884466746022019
:10157000012F72D0013830702878012801D1313024
:1015800028700020A3876065A386E387E386802315
:10159000A064E064A06AA26321639B01984207D122
:1015A00023689D4F1A683A401A601A6802431A600D
:1015B00023681A68944640226746174202D11F6882
:1015C0003A431A60802212019446E76862686745D0
:1015D00000D07EE0002A06D082277F00BA420AD1DE
:1015E000E28E012A07D10A880231DA60E28E216395
:1015F000013A92B2E286E28E002A62D18022920102
:10160000904204D18022196852010A431A600022D4
:101610000A9B01212000FFF743FE00281CD122680D
:10162000A36BD2681A800233A363E38F013B9BB2A2
:10163000E3878023A26A9B019A4200D0C4E00A9B00
:10164000002201212000FFF72BFE002800D1B4E08A
:101650000223626D13436365032005B0F0BD0A9B4E
:10166000002202212000FFF71BFE0028F4D1236B8B
:10167000226819880233D1602363E38E013B9BB259
:10168000E386E38E002B0AD1A36A190080239B0115
:10169000994204D18021136849010B4313600A9BCE
:1016A000002201212000FFF7FBFD0028D4D1226891
:1016B000A36BD2681A800233A363E38F013B9BB212
:1016C000E387E38E002BCAD16268002AB1D10A9B5E
:1016D0009FE7002A06D082277F00BA420AD1E28E15
:1016E000012A07D14A1C22630A78DA60E28E013AA5
:1016F00092B2E286E28E002A49D180229201904283
:1017000004D18022196852010A431A600A9B002200
:1017100001212000FFF7C4FD00289DD12368A26BA2
:10172000DB68137081E70A9B002202212000FFF78B
:10173000B7FD002800D08FE7236B2268591C216376
:101740001B78D360E38E013B9BB2E386E38E002BD4
:101750000AD1A36A190080239B01994204D18021F8
:10176000136849010B4313600A9B002201212000EA
:10177000FFF796FD002800D06EE7A36B5A1CA2630A
:101780002268D2681A70E38F013B9BB2E387E38E35
:10179000002BC8D16268002A00D04AE70A9B0121C9
:1017A0002000FFF77DFD002800D055E7A36B5A1CF1
:1017B000A2632268D2681A7037E72368019ADB684F
:1017C0009BB2138013001B880A9B012280212000FA
:1017D000FFF766FD002802D0626D20233AE701275B
:1017E0008023A26A2F709B019A4211D123689968C5
:1017F000C9060DD50221656D294361651968064C3E
:101800002140196019680A431A603070380024E7D3
:101810000023337021E7C046FFDFFFFFF0B504006F
:101820000E201E00002387B0029202AA80180380B7
:1018300020005130039000780225C0B2012871D1F8
:10184000050099426ED0029A9A426BD02700503719
:101850003D78AC4662460225012A63D0039A38706F
:10186000213010706A4612896365A2876A46128920
:10187000A364E287E3642363A386E3868023A568E9
:10188000A1631B029D4204D12068674F03683B405F
:1018900003608023A06A9B01984207D12368634AB2
:1018A0001F6817401F601F683843186082236268F2
:1018B0005B009A420CD1002D0AD1230050331D70D9
:1018C0000A000096029B2000FFF730FE050029E089
:1018D000402322681168194202D111680B4313603A
:1018E000E368002B2BD0E38F012B2BD93300002290
:1018F00001212000FFF7D4FC002812D12268A36B3D
:10190000D2681A800233A363E38F013B9BB2E38763
:10191000E9E73300002201212000FFF7C1FC002885
:1019200003D00325280007B0F0BDA36B5A1CA263A7
:101930002268D2681A70E38F013B9BB2E387E38F82
:10194000012BE6D88023A26A9B019A4205D180230D
:1019500022685B0111680B431360330000220121F0
:101960002000FFF79DFC051EDBD1E1682268A36B18
:10197000002919D1D268591CA1631A70E38FA26A99
:10198000013B9BB2E38780239B019A4219D133002C
:10199000002201212000FFF783FC002809D0022348
:1019A000626D13436365BCE7D2681A800233A36398
:1019B000E4E70E22236802A9DB6852189BB2138069
:1019C0001388822362685B009A420DD18022A3684B
:1019D0001202934203D08022D200934204D14021CC
:1019E000226813688B4313600120039B2600187044
:1019F0008023A26A9B0150369A4211D123689968CC
:101A0000C9060DD50221656D294361651968074C2A
:101A10002140196019680A431A600023337055E7A2
:101A2000002333707EE7C046FFBFFFFFFFDFFFFFED
:101A3000F8B505000368826800691968024368699F
:101A4000824E0243E8690243814801400A431A601A
:101A50005A6880490A40E9680A435A60A969B34252
:101A600001D02A6A11439A687B4802400A439A606F
:101A70007A4A934217D10322794BDB6C1340794A9F
:101A8000D45C0220FFF70EFB2F680300B74266D13B
:101A9000082C00D9D7E02000FEF73EFB31D539D520
:101AA00059D5D5D55C00704A934205D10C226C4BB8
:101AB000DB6C13406D4AE3E76D4A00249342E0D0AB
:101AC0006C4A9342DDD01034B342DAD1C022802177
:101AD000634B1201DB6CC90013400C3C8B42D0D02D
:101AE00004D80024A342CCD01024CAE780210224C9
:101AF00009018B42C5D006349342C2D0F4E7FFF708
:101B0000C7F900240300A04206D12000F8BD544BC1
:101B10001B68DB0621D4584B03216A68012451431A
:101B20009942F2D811039942EFD300275608190EB3
:101B30001802801979413B00FEF784FB4F4BC21815
:101B40004F4B9A42E1D82B68D8600024DDE7FFF7BD
:101B5000A5F8D6E780231B02DEE74A4BDCE78022AC
:101B6000E969120291423FD1082C3AD82000FEF7D1
:101B7000D3FA050F17383038383833006A685B00FD
:101B8000110050081818FEF7D1FA002480B216E0B0
:101B9000FFF78EF96B6840005B08C0186968F2E7D0
:101BA0002F4B69681C68102348081C4002D0364B34
:101BB000C018E8E7354BC018FEF7B8FA80B20F231B
:101BC00002009A43130000072A68400F1843D060B0
:101BD0009BE7FFF763F8DDE76B68580880235B023B
:101BE000DBE701240020EAE7082C2CD82000FEF7D0
:101BF00093FA050F122A222A2A2A2500FFF748F90C
:101C000069684B081818FEF791FA80B2F8609CE7F3
:101C1000FFF74EF9F4E7124B69681C681023480877
:101C20001C4001D0174BEDE7134BC018FEF77EFAAE
:101C300080B2F86069E7FFF731F8E1E7802369686F
:101C40001B024808DEE701245FE7C0460048004069
:101C5000F369FFEFFFCFFFFFFFF4FFFF0038014004
:101C6000001002401C290008004400402029000800
:101C7000004C0040005000400024F40000FDFFFF35
:101C8000FFFC0F0000093D0000127A000048E80147
:101C9000436A30B5DA0706D50168284C4A68224005
:101CA000846A22434A609A0706D50168244C4A6830
:101CB0002240C46A22434A605A0706D50168214C73
:101CC0004A682240046B22434A601A0706D501681D
:101CD0001D4C4A682240446B22434A60DA0606D50E
:101CE00001681A4C8A682240846B22438A609A06F3
:101CF00006D50168164C8A682240C46B22438A606C
:101D00005A0610D50168134D4A68046C2A402243D4
:101D10004A6080225203944205D14A680E4C224008
:101D2000446C22434A601B0606D502680B4953687F
:101D30000B40816C0B43536030BDC046FFFFFDFF7D
:101D4000FFFFFEFFFFFFFBFFFF7FFFFFFFEFFFFF38
:101D5000FFDFFFFFFFFFEFFFFFFF9FFFFFFFF7FF2B
:101D6000F8B504000E0015001F002268D369334047
:101D70009B1B59424B41AB4201D0002018E0069B0F
:101D80000133F3D0069B002B13D123680C491A684A
:101D900003200A401A609A68A331FF318A439A608F
:101DA000220020236932137053700023683423709B
:101DB000F8BDFEF77DFB069BC01B8342D5D2E4E74E
:101DC0005FFEFFFFF0B5070085B0039369373B78EE
:101DD00004000D0016000220202B46D101380029F6
:101DE00043D0002A41D08023A2685B019A4204D1EB
:101DF0002369002B01D1014237D1230068331A78BF
:101E00000220012A31D001221A700023E366213317
:101E10003B70FEF74DFB230050331E805E80802612
:101E200002907601210052310A8892B2002A0DD127
:101E3000039B402100932000029BFFF791FF0028A5
:101E400012D1202368343B7020700EE00B880022F2
:101E5000013B9BB20B80039B802100932000029BDF
:101E6000FFF77EFF002802D0032005B0F0BDA36875
:101E70002268B34208D12369002B05D12B88023593
:101E8000DB05DB0D9362CDE72B7801359362C9E763
:101E900073B500260400C666FEF70AFB236805003A
:101EA0001B681B0717D423681B685B070AD58021B2
:101EB0000F4B00220093C9032B002000FFF750FFB7
:101EC000002813D1220020230020693268341370C7
:101ED000537020700BE08021054B32000093890382
:101EE00003002000FFF73CFF0028DCD0032076BD74
:101EF000FFFFFF0170B5041E01D1012070BD050078
:101F000069352B78DBB2002B04D1020068321370E4
:101F100000F018FC2423012122682B7013688B43E6
:101F20001360636A002B02D02000FFF7B1FE20008F
:101F3000FFF77EFD0128E0D0236808495A68200099
:101F40000A402A215A609A688A439A6001221968D5
:101F50000A431A60FFF79CFFD0E7C046FFB7FFFFB8
:101F60008021A02010B50022C900C005FEF7D6FBD5
:101F700010BD8021A02010B50122C900C005FEF7C8
:101F8000CDFB10BDF8B580258027A024164EAD00EE
:101F9000FFF7EFFFE405290030007F000022FEF785
:101FA000BDFB390020000022FEF7B8FB39003000ED
:101FB0000022FEF7B3FB290000222000FEF7AEFB53
:101FC0000A20FEF77BFA290001222000FEF7A6FB7B
:101FD0000A20FEF773FA290000222000FEF79EFB7C
:101FE0000A20FEF76BFAF8BD0008005037B50D0067
:101FF0000400FFF7B5FF6B46D91D7F231C400C7012
:10200000074C753B01222000FFF7D4F929000A2371
:1020100001222000FFF702FCFFF7ABFF37BDC046EF
:102020002C000020F7B56B466A469C1D0023D51D89
:102030000E0007002370D371FFF792FF802040420B
:102040003843094F2870290038000A230122FFF77E
:10205000B1F90A230122210038002670FFF7AAF9FE
:10206000FFF787FFF7BDC0462C00002073B56B4615
:102070009D1D0023214E2B703378040083422BD00A
:10208000082101430120FFF7CDFF6B460120D91D38
:10209000FFF7ACFF2B787F2B08D93470052C1BD8A9
:1020A0002000FEF739F829291906191A29003E20BF
:1020B000EEE78021002289001148FEF72FFB8021E6
:1020C000A02000224900C005FEF728FB0122802144
:1020D0000B484900FEF722FB73BD0122802108480E
:1020E0008900FEF71BFB8021A02000224900C005CB
:1020F000FEF714FB0022EAE70022EFE728000020A9
:102100000008005013B56B46DC1D21003F20FFF78F
:102110006DFF054B1B78032B05D123781B0702D5D8
:102120000120FFF7A3FF13BD28000020F0B5170022
:1021300085B006001C0001200AAB1D780191FFF755
:1021400095FF00214020FFF76DFF3B1C3D2F00D97C
:102150003D23DBB200938027002D03D127007C1E96
:10216000A741BF01FFF7FCFE02ABDC1D80231E4D23
:1021700023700122763B21002800FFF71BF9009B0A
:1021800001220333237021000A232800FFF712F9EC
:1021900026700A260A23012221002800FFF70AF9E7
:1021A00033000122210028002670FFF703F93300D5
:1021B0000122210028002770FFF7FCF8019E009BF8
:1021C000F718BE4206D1FFF7D4FE0320FFF74EFFFB
:1021D00005B0F0BD33780122237021000A232800C6
:1021E000FFF7E8F80136ECE72C00002007B5FFF711
:1021F000C9FE01210920FFF715FF6B460920D91DF3
:10220000FFF7F4FE8F213520FFF70CFF6B463520DA
:10221000D91DFFF7EBFE80213020FFF703FF6B464F
:102220003020D91DFFF7E2FE40213120FFF7FAFEF2
:102230006B463120D91DFFF7D9FE00212520FFF77D
:10224000F1FE6B462520D91DFFF7D0FE0321262085
:10225000FFF7E8FE6B462620D91DFFF7C7FEE421F5
:102260000620FFF7DFFE6B460620D91DFFF7BEFEF6
:10227000C0210720FFF7D6FE6B460720D91DFFF7C8
:10228000B5FE00210820FFF7CDFE6B460820D91DC2
:10229000FFF7ACFE91212720FFF7C4FE6B462720F5
:1022A000D91DFFF7A3FE5A212820FFF7BBFE6B467E
:1022B0002820D91DFFF79AFE5A212920FFF7B2FEE8
:1022C0006B462920D91DFFF791FE1A210220FFF746
:1022D000A9FE6B460220D91DFFF788FE0B210320C3
:1022E000FFF7A0FE6B460320D91DFFF77FFE0021FC
:1022F0000420FFF797FE6B460420D91DFFF776FEFA
:1023000052210520FFF78EFE6B460520D91DFFF7F1
:102310006DFE05211220FFF785FE6B461220D91DA8
:10232000FFF764FE0A213320FFF77CFE6B46332063
:10233000D91DFFF75BFE0120FFF798FE07BD0000E7
:102340000420314BF0B5D96A01250143D962DA6A1C
:102350008BB002400192019AD96A7C300143D96264
:102360000221DA6AA02702400292029ADA6AFF0585
:102370002A43DA62DA6A38002A400392039ADA6A58
:10238000224E0A43DA62DB6A00220B40E421049306
:10239000C900049BFEF7C2F9C02100223000890069
:1023A000FEF7BCF9802300249B010593184B05A977
:1023B000300006930794FEF7F5F8E42305A9DB0047
:1023C00038000593069507940894FEF7EBF8C023B0
:1023D00005930F4B05A9380006930794FEF7E2F822
:1023E000C02305A99B003000059306950794089427
:1023F000FEF7D8F8220021000720FEF76BF807202F
:10240000FEF798F80BB0F0BD001002400008005035
:10241000000011102449254A0B6830B51A4080236A
:102420001B0113430B60A0239FB0DB021193802399
:102430005B021B9380235B031C93802301250224F2
:102440001B0410A810951A941D93FEF7B7F90028E5
:1024500000D0FEE70F230390019304900C3B0590FE
:10246000290001A80293FEF755FC002800D0FEE7E2
:102470000A9006A80694FEF72BFD041E00D0FEE786
:10248000FEF700FDFA218900FDF750FEFEF75CF82B
:102490000420FEF773F80120220021004042FEF7DD
:1024A00019F81FB030BDC04600700040FFE7FFFFC5
:1024B00030B589B0FDF7E4FFFFF7ACFFFFF740FF51
:1024C00000F020F900F068F8FFF790FE0B236B4452
:1024D00019002720FFF78AFD0A213320FFF7A2FD0C
:1024E0000B236B4419003320FFF780FD0B21164BA3
:1024F000012269441548FA25FFF764FC0024AD0069
:102500002800FDF7DBFF0E22114903A800F0A4F913
:102510001A2006220021684400F0A7F919210D4B6A
:1025200069440022985E421C1A800A2200F090F949
:1025300003A8FDF7E9FD0094C2B2002303A914200B
:10254000FFF7F4FDDCE7C046FFFF00008400002039
:102550000829000820000020802310B59B01984224
:1025600001D040280BD1A0202021C005FEF7DCF8C7
:10257000054B1B2205490648FFF724FC10BD8028A7
:10258000FCD1FFF7BFFDF9E7FFFF00002D29000890
:1025900084000020FEE700000F48104B10B50360D8
:1025A000822380225B004360002392008261F93A1B
:1025B0008360C36003614361FF3A036243628362E5
:1025C0000733C261C362FEF7B5FE002803D0452180
:1025D0000348FFF7DFFF10BD2C0000200030014052
:1025E0004929000870B5134B026886B09A421ED183
:1025F0008023114A5B01516BA0200B435363C0231E
:102600000024022603255B0101A9C005019302965F
:10261000039404950594FDF7C5FF082301A9074815
:1026200001930296039404950594FDF7BBFF06B051
:1026300070BDC04600300140001002400004005050
:1026400001220E4B10B5596B05200A435A638022B4
:10265000996B52050A439A63002240421100FDF72C
:1026600039FF0022022011004042FDF733FF002213
:10267000012011004042FDF72DFF10BD0010024067
:102680007047704710B5FDF70BFFFDF786FF10BDD3
:1026900010B54020FEF74CF88020FEF749F8802066
:1026A0008001FEF745F810BD8022104B52001968DA
:1026B0000A431A60DA680E490A40DA601A680D495E
:1026C0000A4001211A609A688A439A601A680A4986
:1026D0000A401A60DA6809490A40DA6000221A6181
:1026E0008022074B12059A607047C04600100240D6
:1026F0000C40FF88F6FFF6FEFFFFFBFFFFFF02FF27
:1027000000ED00E00C480D4B10B50360E1235B02C7
:1027100043600C22002342618360C36003618361D4
:10272000C36103624362FFF7E5FB002803D0442145
:102730000348FFF72FFF10BD840000200044004035
:10274000772900087FB50D4B02689A4214D1802387
:102750000B4A9B02916BA0200B4393630C230193C4
:102760000A3B0293002303930333049301A901332B
:10277000C0050593FDF716FF07B000BD00440040FB
:10278000001002400D488546002103E00C4B5B58C9
:10279000435004310B480C4B42189A42F6D30B4A73
:1027A00002E0002313600432094B9A42F9D3FFF789
:1027B0007BFF00F011F8FFF77BFEFEE700500020E2
:1027C000BC290008000000200400002004000020B4
:1027D000F4000020FEE7000070B500260C4D0D4C03
:1027E000641BA410A64209D1002600F081F80A4D0E
:1027F0000A4C641BA410A64205D170BDB300EB586F
:1028000098470136EEE7B300EB5898470136F2E7F8
:10281000B4290008B4290008B4290008B829000820
:10282000931E10B50C00222B04D900231C000B7042
:10283000200010BD0A2A09D1002807DA2D230B70C9
:1028400001214042611800F019F8F1E70021F9E791
:1028500010B5FFF7E5FF10BD002310B59A4200D177
:1028600010BDCC5CC4540133F8E7030082189342D6
:1028700000D1704719700133F9E70000F0B5170077
:102880008FB0252206000D0004A81849FFF7E4FFC9
:1028900004AABB1E00240392222B05D92C7025000C
:1028A00028000FB0F0BD019C631C0193EB1800934E
:1028B0003000013B39000293FDF7BEFC039B029AF6
:1028C0005B5C300013703900FDF730FC061EEAD166
:1028D000009B18702B005A1B9442E1DD1A78295D89
:1028E00019702A550133013CF5E7C04686290008D6
:1028F000F8B5C046F8BC08BC9E467047F8B5C0465F
:08290000F8BC08BC9E467047BC
:1029080048656C6C6F20576F726C64202300000060
:10291800000000000104020800101010041010103C
:102928000210101008447269766577617920416C4D
:1029380061726D20547269676765726564210A0D5A
:10294800002E2E5C5372635C7370692E6300000066
:102958000000000000000102030406070809000047
:10296800000001020304030406080C101820302E8E
:102978002E5C5372635C75736172742E6300303120
:10298800323334353637383961626364656667686F
:10299800696A6B6C6D6E6F70717273747576777827
:0429A800797A000038
:0829AC00D8D8FF7F01000000F4
:0429B400E90000082E
:0429B800C100000852
:0429BC0080841E00F5
:040000050800278543
:00000001FF
